:020000040000FA
:100000000128831603138601831203138601A301BB
:100010004420061B0F20861B172009280E280630B7
:100020002A205B2023084D203720A30A0800043033
:100030002A205B200530230203192228592037206B
:10004000A303080085302A20A3030800A30AC030B8
:100050002A200800A200220E3020220830200800AA
:100060000F398600061286165B2086120800A20051
:10007000220E3D2022083D2008000F39860006167A
:1000800086165B208612080002302A200E302A20B5
:1000900001302A2028302A20080082074E344934B3
:1000A0004C344134593426204E3449344C34413494
:1000B000593420340034FA30A0006430A100A10B80
:0800C0005F28A00B5D28080079
:00000001FF
